{
  "contractName": "MicrolendingPlatform",
  "abi": [
    {
      "constant": true,
      "inputs": [
        {
          "name": "_membersAddress",
          "type": "address"
        }
      ],
      "name": "getplatformMemberDetail",
      "outputs": [
        {
          "name": "_name",
          "type": "string"
        },
        {
          "name": "_verified",
          "type": "bool"
        }
      ],
      "payable": false,
      "stateMutability": "view",
      "type": "function"
    },
    {
      "constant": true,
      "inputs": [
        {
          "name": "index",
          "type": "uint256"
        }
      ],
      "name": "getcurrentVCs",
      "outputs": [
        {
          "name": "",
          "type": "string"
        }
      ],
      "payable": false,
      "stateMutability": "view",
      "type": "function"
    },
    {
      "constant": true,
      "inputs": [
        {
          "name": "_vcName",
          "type": "string"
        }
      ],
      "name": "getVCsMembers",
      "outputs": [
        {
          "name": "",
          "type": "address[]"
        }
      ],
      "payable": false,
      "stateMutability": "view",
      "type": "function"
    },
    {
      "constant": true,
      "inputs": [],
      "name": "vcCounter",
      "outputs": [
        {
          "name": "",
          "type": "uint256"
        }
      ],
      "payable": false,
      "stateMutability": "view",
      "type": "function"
    },
    {
      "constant": false,
      "inputs": [
        {
          "name": "_vcName",
          "type": "string"
        },
        {
          "name": "_AmountDeposite",
          "type": "uint24"
        }
      ],
      "name": "Deposite",
      "outputs": [
        {
          "name": "",
          "type": "bool"
        }
      ],
      "payable": false,
      "stateMutability": "nonpayable",
      "type": "function"
    },
    {
      "constant": false,
      "inputs": [
        {
          "name": "_vcName",
          "type": "string"
        },
        {
          "name": "_borrowAmount",
          "type": "uint24"
        },
        {
          "name": "_mortgageCertificate",
          "type": "string"
        }
      ],
      "name": "loanApprovalRequest",
      "outputs": [
        {
          "name": "",
          "type": "bool"
        }
      ],
      "payable": false,
      "stateMutability": "nonpayable",
      "type": "function"
    },
    {
      "constant": false,
      "inputs": [
        {
          "name": "_vcName",
          "type": "string"
        },
        {
          "name": "_memberAddress",
          "type": "address"
        }
      ],
      "name": "loanRequestAccepted",
      "outputs": [
        {
          "name": "",
          "type": "bool"
        }
      ],
      "payable": false,
      "stateMutability": "nonpayable",
      "type": "function"
    },
    {
      "constant": false,
      "inputs": [
        {
          "name": "_vcName",
          "type": "string"
        },
        {
          "name": "_membersAddress",
          "type": "address"
        }
      ],
      "name": "joinVCAccept",
      "outputs": [
        {
          "name": "",
          "type": "bool"
        }
      ],
      "payable": false,
      "stateMutability": "nonpayable",
      "type": "function"
    },
    {
      "constant": false,
      "inputs": [
        {
          "name": "_vcName",
          "type": "string"
        },
        {
          "name": "_amount",
          "type": "uint24"
        }
      ],
      "name": "joinVCRequest",
      "outputs": [
        {
          "name": "",
          "type": "bool"
        }
      ],
      "payable": false,
      "stateMutability": "nonpayable",
      "type": "function"
    },
    {
      "constant": false,
      "inputs": [
        {
          "name": "_vcName",
          "type": "string"
        }
      ],
      "name": "endVC",
      "outputs": [
        {
          "name": "",
          "type": "bool"
        }
      ],
      "payable": false,
      "stateMutability": "nonpayable",
      "type": "function"
    },
    {
      "constant": true,
      "inputs": [
        {
          "name": "_vcName",
          "type": "string"
        }
      ],
      "name": "getVCsloanBorrower",
      "outputs": [
        {
          "name": "",
          "type": "address[]"
        }
      ],
      "payable": false,
      "stateMutability": "view",
      "type": "function"
    },
    {
      "constant": false,
      "inputs": [
        {
          "name": "_vcName",
          "type": "string"
        },
        {
          "name": "_minimumAmount",
          "type": "uint16"
        },
        {
          "name": "_maximumAmount",
          "type": "uint24"
        },
        {
          "name": "_interest",
          "type": "uint8"
        }
      ],
      "name": "startVC",
      "outputs": [
        {
          "name": "",
          "type": "bool"
        }
      ],
      "payable": false,
      "stateMutability": "nonpayable",
      "type": "function"
    },
    {
      "constant": false,
      "inputs": [
        {
          "name": "_vcName",
          "type": "string"
        }
      ],
      "name": "restartVC",
      "outputs": [
        {
          "name": "",
          "type": "bool"
        }
      ],
      "payable": false,
      "stateMutability": "nonpayable",
      "type": "function"
    },
    {
      "constant": true,
      "inputs": [
        {
          "name": "_vcName",
          "type": "string"
        }
      ],
      "name": "getVCsDetails",
      "outputs": [
        {
          "name": "vcName",
          "type": "string"
        },
        {
          "name": "minimumAmount",
          "type": "uint16"
        },
        {
          "name": "maximumAmount",
          "type": "uint24"
        },
        {
          "name": "interest",
          "type": "uint8"
        },
        {
          "name": "vcAdmin",
          "type": "address"
        },
        {
          "name": "totalAmount",
          "type": "uint32"
        },
        {
          "name": "totalmembers",
          "type": "uint8"
        }
      ],
      "payable": false,
      "stateMutability": "view",
      "type": "function"
    },
    {
      "constant": true,
      "inputs": [
        {
          "name": "_vcName",
          "type": "string"
        }
      ],
      "name": "getVCmemberAccountBalance",
      "outputs": [
        {
          "name": "",
          "type": "uint256"
        }
      ],
      "payable": false,
      "stateMutability": "view",
      "type": "function"
    },
    {
      "anonymous": false,
      "inputs": [
        {
          "indexed": false,
          "name": "_membersAddress",
          "type": "address"
        },
        {
          "indexed": false,
          "name": "_name",
          "type": "string"
        }
      ],
      "name": "MemberRegisteredOnPlatform",
      "type": "event"
    },
    {
      "anonymous": false,
      "inputs": [
        {
          "indexed": false,
          "name": "_membersAddress",
          "type": "address"
        },
        {
          "indexed": false,
          "name": "_name",
          "type": "string"
        }
      ],
      "name": "MemberVerified",
      "type": "event"
    },
    {
      "anonymous": false,
      "inputs": [
        {
          "indexed": false,
          "name": "_vcName",
          "type": "string"
        },
        {
          "indexed": false,
          "name": "_memberAddress",
          "type": "address"
        },
        {
          "indexed": false,
          "name": "_amountDeposite",
          "type": "uint24"
        },
        {
          "indexed": false,
          "name": "_dueAmount",
          "type": "uint24"
        }
      ],
      "name": "MoneyDeposited",
      "type": "event"
    },
    {
      "anonymous": false,
      "inputs": [
        {
          "indexed": false,
          "name": "_vcName",
          "type": "string"
        },
        {
          "indexed": false,
          "name": "_memberAddress",
          "type": "address"
        },
        {
          "indexed": false,
          "name": "_dueAmount",
          "type": "uint24"
        }
      ],
      "name": "RiembursementTimeUpdate",
      "type": "event"
    },
    {
      "anonymous": false,
      "inputs": [
        {
          "indexed": false,
          "name": "_vcName",
          "type": "string"
        },
        {
          "indexed": false,
          "name": "_membersAddress",
          "type": "address"
        },
        {
          "indexed": false,
          "name": "_amount",
          "type": "uint256"
        }
      ],
      "name": "vcMemberLoanRequest",
      "type": "event"
    },
    {
      "anonymous": false,
      "inputs": [
        {
          "indexed": false,
          "name": "_vcName",
          "type": "string"
        },
        {
          "indexed": false,
          "name": "_membersAddress",
          "type": "address"
        }
      ],
      "name": "vcMemberLoanRequestAccepted",
      "type": "event"
    },
    {
      "anonymous": false,
      "inputs": [
        {
          "indexed": false,
          "name": "_vcName",
          "type": "string"
        },
        {
          "indexed": false,
          "name": "_membersAddress",
          "type": "address"
        },
        {
          "indexed": false,
          "name": "_amount",
          "type": "uint256"
        }
      ],
      "name": "vcMemberAddRequest",
      "type": "event"
    },
    {
      "anonymous": false,
      "inputs": [
        {
          "indexed": false,
          "name": "_vcName",
          "type": "string"
        },
        {
          "indexed": false,
          "name": "_membersAddress",
          "type": "address"
        }
      ],
      "name": "vcMemberAddRequestAccepted",
      "type": "event"
    },
    {
      "anonymous": false,
      "inputs": [
        {
          "indexed": false,
          "name": "_vcName",
          "type": "string"
        },
        {
          "indexed": false,
          "name": "_vcAdmin",
          "type": "address"
        }
      ],
      "name": "VCstarted",
      "type": "event"
    },
    {
      "anonymous": false,
      "inputs": [
        {
          "indexed": false,
          "name": "_vcName",
          "type": "string"
        },
        {
          "indexed": false,
          "name": "_vcAdmin",
          "type": "address"
        }
      ],
      "name": "VCrestarted",
      "type": "event"
    },
    {
      "anonymous": false,
      "inputs": [
        {
          "indexed": false,
          "name": "_vcName",
          "type": "string"
        }
      ],
      "name": "VCpaused",
      "type": "event"
    },
    {
      "anonymous": false,
      "inputs": [
        {
          "indexed": false,
          "name": "_vcName",
          "type": "string"
        }
      ],
      "name": "VCEnded",
      "type": "event"
    },
    {
      "constant": false,
      "inputs": [
        {
          "name": "_name",
          "type": "string"
        }
      ],
      "name": "memberRegistrationPlatform",
      "outputs": [
        {
          "name": "",
          "type": "bool"
        }
      ],
      "payable": false,
      "stateMutability": "nonpayable",
      "type": "function"
    },
    {
      "constant": false,
      "inputs": [
        {
          "name": "_kyc",
          "type": "string"
        }
      ],
      "name": "membersVerification",
      "outputs": [
        {
          "name": "",
          "type": "bool"
        }
      ],
      "payable": true,
      "stateMutability": "payable",
      "type": "function"
    }
  ],
  "bytecode": "0x60806040526000805534801561001457600080fd5b50614de5806100246000396000f3006080604052600436106100f1576000357c0100000000000000000000000000000000000000000000000000000000900463ffffffff1680631b0db521146100f6578063218fe8f6146101bd5780632c3191b91461023e57806337f0c663146102e4578063416ebbc3146103a257806359655a2f146103cd5780635bfc19ba1461045d5780639fde71cb14610533578063a0ea932d146105d4578063a4cacf0e14610675578063a7dfae4214610705578063ab05e30314610786578063b747c59a14610844578063e39bd76f146108ef578063e3c11f5e14610970578063e925504f14610ad2578063f3c2868f14610b4f575b600080fd5b34801561010257600080fd5b50610137600480360381019080803573ffffffffffffffffffffffffffffffffffffffff169060200190929190505050610bc3565b604051808060200183151515158152602001828103825284818151815260200191508051906020019080838360005b83811015610181578082015181840152602081019050610166565b50505050905090810190601f1680156101ae5780820380516001836020036101000a031916815260200191505b50935050505060405180910390f35b3480156101c957600080fd5b50610224600480360381019080803590602001908201803590602001908080601f0160208091040260200160405190810160405280939291908181526020018383808284378201915050505050509192919290505050610cfb565b604051808215151515815260200191505060405180910390f35b34801561024a57600080fd5b5061026960048036038101908080359060200190929190505050610edd565b6040518080602001828103825283818151815260200191508051906020019080838360005b838110156102a957808201518184015260208101905061028e565b50505050905090810190601f1680156102d65780820380516001836020036101000a031916815260200191505b509250505060405180910390f35b3480156102f057600080fd5b5061034b600480360381019080803590602001908201803590602001908080601f0160208091040260200160405190810160405280939291908181526020018383808284378201915050505050509192919290505050610f92565b6040518080602001828103825283818151815260200191508051906020019060200280838360005b8381101561038e578082015181840152602081019050610373565b505050509050019250505060405180910390f35b3480156103ae57600080fd5b506103b761108b565b6040518082815260200191505060405180910390f35b3480156103d957600080fd5b50610443600480360381019080803590602001908201803590602001908080601f0160208091040260200160405190810160405280939291908181526020018383808284378201915050505050509192919290803562ffffff169060200190929190505050611091565b604051808215151515815260200191505060405180910390f35b34801561046957600080fd5b50610519600480360381019080803590602001908201803590602001908080601f0160208091040260200160405190810160405280939291908181526020018383808284378201915050505050509192919290803562ffffff169060200190929190803590602001908201803590602001908080601f01602080910402602001604051908101604052809392919081815260200183838082843782019150505050505091929192905050506113d9565b604051808215151515815260200191505060405180910390f35b34801561053f57600080fd5b506105ba600480360381019080803590602001908201803590602001908080601f0160208091040260200160405190810160405280939291908181526020018383808284378201915050505050509192919290803573ffffffffffffffffffffffffffffffffffffffff169060200190929190505050611943565b604051808215151515815260200191505060405180910390f35b3480156105e057600080fd5b5061065b600480360381019080803590602001908201803590602001908080601f0160208091040260200160405190810160405280939291908181526020018383808284378201915050505050509192919290803573ffffffffffffffffffffffffffffffffffffffff169060200190929190505050612183565b604051808215151515815260200191505060405180910390f35b34801561068157600080fd5b506106eb600480360381019080803590602001908201803590602001908080601f0160208091040260200160405190810160405280939291908181526020018383808284378201915050505050509192919290803562ffffff1690602001909291905050506127d1565b604051808215151515815260200191505060405180910390f35b34801561071157600080fd5b5061076c600480360381019080803590602001908201803590602001908080601f0160208091040260200160405190810160405280939291908181526020018383808284378201915050505050509192919290505050612ae3565b604051808215151515815260200191505060405180910390f35b34801561079257600080fd5b506107ed600480360381019080803590602001908201803590602001908080601f0160208091040260200160405190810160405280939291908181526020018383808284378201915050505050509192919290505050612d0f565b6040518080602001828103825283818151815260200191508051906020019060200280838360005b83811015610830578082015181840152602081019050610815565b505050509050019250505060405180910390f35b34801561085057600080fd5b506108d5600480360381019080803590602001908201803590602001908080601f0160208091040260200160405190810160405280939291908181526020018383808284378201915050505050509192919290803561ffff169060200190929190803562ffffff169060200190929190803560ff169060200190929190505050612e08565b604051808215151515815260200191505060405180910390f35b3480156108fb57600080fd5b50610956600480360381019080803590602001908201803590602001908080601f0160208091040260200160405190810160405280939291908181526020018383808284378201915050505050509192919290505050613297565b604051808215151515815260200191505060405180910390f35b34801561097c57600080fd5b506109d7600480360381019080803590602001908201803590602001908080601f0160208091040260200160405190810160405280939291908181526020018383808284378201915050505050509192919290505050613633565b60405180806020018861ffff1661ffff1681526020018762ffffff1662ffffff1681526020018660ff1660ff1681526020018573ffffffffffffffffffffffffffffffffffffffff1673ffffffffffffffffffffffffffffffffffffffff1681526020018463ffffffff1663ffffffff1681526020018360ff1660ff168152602001828103825289818151815260200191508051906020019080838360005b83811015610a91578082015181840152602081019050610a76565b50505050905090810190601f168015610abe5780820380516001836020036101000a031916815260200191505b509850505050505050505060405180910390f35b348015610ade57600080fd5b50610b39600480360381019080803590602001908201803590602001908080601f0160208091040260200160405190810160405280939291908181526020018383808284378201915050505050509192919290505050613a62565b6040518082815260200191505060405180910390f35b610ba9600480360381019080803590602001908201803590602001908080601f0160208091040260200160405190810160405280939291908181526020018383808284378201915050505050509192919290505050613b14565b604051808215151515815260200191505060405180910390f35b60606000600560008473ffffffffffffffffffffffffffffffffffffffff1673ffffffffffffffffffffffffffffffffffffffff1681526020019081526020016000206001018054600181600116156101000203166002900480601f016020809104026020016040519081016040528092919081815260200182805460018160011615610100020316600290048015610c9d5780601f10610c7257610100808354040283529160200191610c9d565b820191906000526020600020905b815481529060010190602001808311610c8057829003601f168201915b50505050509150600560008473ffffffffffffffffffffffffffffffffffffffff1673ffffffffffffffffffffffffffffffffffffffff16815260200190815260200160002060020160009054906101000a900460ff169050915091565b6000610d05614b8c565b6060604051908101604052803373ffffffffffffffffffffffffffffffffffffffff16815260200184815260200160001515815250905080600560003373ffffffffffffffffffffffffffffffffffffffff1673ffffffffffffffffffffffffffffffffffffffff16815260200190815260200160002060008201518160000160006101000a81548173ffffffffffffffffffffffffffffffffffffffff021916908373ffffffffffffffffffffffffffffffffffffffff1602179055506020820151816001019080519060200190610ddf929190614bc6565b5060408201518160020160006101000a81548160ff0219169083151502179055509050507fd12c0f05a9d7cfefc51277bf3b769313e8c3ab4f68c31fcd6b1ff4e7c8f73cd43384604051808373ffffffffffffffffffffffffffffffffffffffff1673ffffffffffffffffffffffffffffffffffffffff16815260200180602001828103825283818151815260200191508051906020019080838360005b83811015610e98578082015181840152602081019050610e7d565b50505050905090810190601f168015610ec55780820380516001836020036101000a031916815260200191505b50935050505060405180910390a16001915050919050565b6060600260008381526020019081526020016000208054600181600116156101000203166002900480601f016020809104026020016040519081016040528092919081815260200182805460018160011615610100020316600290048015610f865780601f10610f5b57610100808354040283529160200191610f86565b820191906000526020600020905b815481529060010190602001808311610f6957829003601f168201915b50505050509050919050565b60606006826040518082805190602001908083835b602083101515610fcc5780518252602082019150602081019050602083039250610fa7565b6001836020036101000a038019825116818451168082178552505050505050905001915050908152602001604051809103902080548060200260200160405190810160405280929190818152602001828054801561107f57602002820191906000526020600020905b8160009054906101000a900473ffffffffffffffffffffffffffffffffffffffff1673ffffffffffffffffffffffffffffffffffffffff1681526020019060010190808311611035575b50505050509050919050565b60005481565b600061109d8383613d05565b50816009846040518082805190602001908083835b6020831015156110d757805182526020820191506020810190506020830392506110b2565b6001836020036101000a038019825116818451168082178552505050505050905001915050908152602001604051809103902060003373ffffffffffffffffffffffffffffffffffffffff1673ffffffffffffffffffffffffffffffffffffffff16815260200190815260200160002060000160038282829054906101000a900462ffffff160392506101000a81548162ffffff021916908362ffffff1602179055508162ffffff166003846040518082805190602001908083835b6020831015156111b85780518252602082019150602081019050602083039250611193565b6001836020036101000a038019825116818451168082178552505050505050905001915050908152602001604051809103902060000160058282829054906101000a900463ffffffff160192506101000a81548163ffffffff021916908363ffffffff1602179055507febeba40d6f95719581d7b9e7a4772d6f890b38b10c3874e5158288bc988718058333846009876040518082805190602001908083835b60208310151561127d5780518252602082019150602081019050602083039250611258565b6001836020036101000a038019825116818451168082178552505050505050905001915050908152602001604051809103902060003373ffffffffffffffffffffffffffffffffffffffff1673ffffffffffffffffffffffffffffffffffffffff16815260200190815260200160002060000160039054906101000a900462ffffff1660405180806020018573ffffffffffffffffffffffffffffffffffffffff1673ffffffffffffffffffffffffffffffffffffffff1681526020018462ffffff1662ffffff1681526020018362ffffff1662ffffff168152602001828103825286818151815260200191508051906020019080838360005b83811015611392578082015181840152602081019050611377565b50505050905090810190601f1680156113bf5780820380516001836020036101000a031916815260200191505b509550505050505060405180910390a16001905092915050565b60006113e3614c46565b846113ed81613eba565b50426004826040518082805190602001908083835b6020831015156114275780518252602082019150602081019050602083039250611402565b6001836020036101000a03801982511681845116808217855250505050505090500191505090815260200160405180910390206004015410151561146a57600080fd5b600380826040518082805190602001908083835b6020831015156114a3578051825260208201915060208101905060208303925061147e565b6001836020036101000a038019825116818451168082178552505050505050905001915050908152602001604051809103902060000160009054906101000a900460ff1660ff16101561161d57600180826040518082805190602001908083835b6020831015156115295780518252602082019150602081019050602083039250611504565b6001836020036101000a038019825116818451168082178552505050505050905001915050908152602001604051809103902060006101000a81548160ff0219169083600281111561157757fe5b02179055507ffb1b9a08020831ef213e0e083ede40c9ead79f92f04e5686d96293aa7879052c816040518080602001828103825283818151815260200191508051906020019080838360005b838110156115de5780820151818401526020810190506115c3565b50505050905090810190601f16801561160b5780820380516001836020036101000a031916815260200191505b509250505060405180910390a1600080fd5b854260b46008836040518082805190602001908083835b6020831015156116595780518252602082019150602081019050602083039250611634565b6001836020036101000a038019825116818451168082178552505050505050905001915050908152602001604051809103902060003373ffffffffffffffffffffffffffffffffffffffff1673ffffffffffffffffffffffffffffffffffffffff16815260200190815260200160002060010154031115156116da57600080fd5b6116e333613f61565b506116f3878762ffffff16613fc7565b506080604051908101604052808762ffffff1681526020018762ffffff168152602001868152602001600015158152509250826009886040518082805190602001908083835b60208310151561175e5780518252602082019150602081019050602083039250611739565b6001836020036101000a038019825116818451168082178552505050505050905001915050908152602001604051809103902060003373ffffffffffffffffffffffffffffffffffffffff1673ffffffffffffffffffffffffffffffffffffffff16815260200190815260200160002060008201518160000160006101000a81548162ffffff021916908362ffffff16021790555060208201518160000160036101000a81548162ffffff021916908362ffffff1602179055506040820151816001019080519060200190611834929190614bc6565b5060608201518160020160006101000a81548160ff0219169083151502179055509050507f69e2fc2e9bb7829fa0a4a123a9f0b8c4da881597d58ce799abf14c8a8f3e87a087338860405180806020018473ffffffffffffffffffffffffffffffffffffffff1673ffffffffffffffffffffffffffffffffffffffff1681526020018362ffffff168152602001828103825285818151815260200191508051906020019080838360005b838110156118f95780820151818401526020810190506118de565b50505050905090810190601f1680156119265780820380516001836020036101000a031916815260200191505b5094505050505060405180910390a1600193505050509392505050565b6000823373ffffffffffffffffffffffffffffffffffffffff166004826040518082805190602001908083835b6020831015156119955780518252602082019150602081019050602083039250611970565b6001836020036101000a038019825116818451168082178552505050505050905001915050908152602001604051809103902060020160009054906101000a900473ffffffffffffffffffffffffffffffffffffffff1673ffffffffffffffffffffffffffffffffffffffff16141515611a0e57600080fd5b611a188484614068565b5060016009856040518082805190602001908083835b602083101515611a535780518252602082019150602081019050602083039250611a2e565b6001836020036101000a038019825116818451168082178552505050505050905001915050908152602001604051809103902060008573ffffffffffffffffffffffffffffffffffffffff1673ffffffffffffffffffffffffffffffffffffffff16815260200190815260200160002060020160006101000a81548160ff0219169083151502179055506009846040518082805190602001908083835b602083101515611b155780518252602082019150602081019050602083039250611af0565b6001836020036101000a038019825116818451168082178552505050505050905001915050908152602001604051809103902060008473ffffffffffffffffffffffffffffffffffffffff1673ffffffffffffffffffffffffffffffffffffffff16815260200190815260200160002060000160009054906101000a900462ffffff1662ffffff166003856040518082805190602001908083835b602083101515611bd55780518252602082019150602081019050602083039250611bb0565b6001836020036101000a038019825116818451168082178552505050505050905001915050908152602001604051809103902060000160058282829054906101000a900463ffffffff160392506101000a81548163ffffffff021916908363ffffffff160217905550600a846040518082805190602001908083835b602083101515611c765780518252602082019150602081019050602083039250611c51565b6001836020036101000a03801982511681845116808217855250505050505090500191505090815260200160405180910390208390806001815401808255809150509060018203906000526020600020016000909192909190916101000a81548173ffffffffffffffffffffffffffffffffffffffff021916908373ffffffffffffffffffffffffffffffffffffffff1602179055505060b442016008856040518082805190602001908083835b602083101515611d495780518252602082019150602081019050602083039250611d24565b6001836020036101000a038019825116818451168082178552505050505050905001915050908152602001604051809103902060008573ffffffffffffffffffffffffffffffffffffffff1673ffffffffffffffffffffffffffffffffffffffff16815260200190815260200160002060000181905550603c6008856040518082805190602001908083835b602083101515611dfa5780518252602082019150602081019050602083039250611dd5565b6001836020036101000a038019825116818451168082178552505050505050905001915050908152602001604051809103902060008573ffffffffffffffffffffffffffffffffffffffff1673ffffffffffffffffffffffffffffffffffffffff16815260200190815260200160002060000154016008856040518082805190602001908083835b602083101515611ea75780518252602082019150602081019050602083039250611e82565b6001836020036101000a038019825116818451168082178552505050505050905001915050908152602001604051809103902060008573ffffffffffffffffffffffffffffffffffffffff1673ffffffffffffffffffffffffffffffffffffffff16815260200190815260200160002060010181905550611fe16009856040518082805190602001908083835b602083101515611f595780518252602082019150602081019050602083039250611f34565b6001836020036101000a038019825116818451168082178552505050505050905001915050908152602001604051809103902060008573ffffffffffffffffffffffffffffffffffffffff1673ffffffffffffffffffffffffffffffffffffffff16815260200190815260200160002060000160009054906101000a900462ffffff16614220565b6009856040518082805190602001908083835b6020831015156120195780518252602082019150602081019050602083039250611ff4565b6001836020036101000a038019825116818451168082178552505050505050905001915050908152602001604051809103902060008573ffffffffffffffffffffffffffffffffffffffff1673ffffffffffffffffffffffffffffffffffffffff16815260200190815260200160002060000160036101000a81548162ffffff021916908362ffffff1602179055507f4f60a990eef9cf015e70afc695459cc38f36739876316cb4464f0a2c33d39cb8848460405180806020018373ffffffffffffffffffffffffffffffffffffffff1673ffffffffffffffffffffffffffffffffffffffff168152602001828103825284818151815260200191508051906020019080838360005b8381101561213d578082015181840152602081019050612122565b50505050905090810190601f16801561216a5780820380516001836020036101000a031916815260200191505b50935050505060405180910390a1600191505092915050565b6000823373ffffffffffffffffffffffffffffffffffffffff166004826040518082805190602001908083835b6020831015156121d557805182526020820191506020810190506020830392506121b0565b6001836020036101000a038019825116818451168082178552505050505050905001915050908152602001604051809103902060020160009054906101000a900473ffffffffffffffffffffffffffffffffffffffff1673ffffffffffffffffffffffffffffffffffffffff1614151561224e57600080fd5b612258848461423d565b5060016007856040518082805190602001908083835b602083101515612293578051825260208201915060208101905060208303925061226e565b6001836020036101000a038019825116818451168082178552505050505050905001915050908152602001604051809103902060003373ffffffffffffffffffffffffffffffffffffffff1673ffffffffffffffffffffffffffffffffffffffff16815260200190815260200160002060000160036101000a81548160ff0219169083151502179055506006846040518082805190602001908083835b6020831015156123555780518252602082019150602081019050602083039250612330565b6001836020036101000a03801982511681845116808217855250505050505090500191505090815260200160405180910390208390806001815401808255809150509060018203906000526020600020016000909192909190916101000a81548173ffffffffffffffffffffffffffffffffffffffff021916908373ffffffffffffffffffffffffffffffffffffffff160217905550506003846040518082805190602001908083835b60208310151561242457805182526020820191506020810190506020830392506123ff565b6001836020036101000a0380198251168184511680821785525050505050509050019150509081526020016040518091039020600001600081819054906101000a900460ff168092919060010191906101000a81548160ff021916908360ff160217905550506007846040518082805190602001908083835b6020831015156124c2578051825260208201915060208101905060208303925061249d565b6001836020036101000a038019825116818451168082178552505050505050905001915050908152602001604051809103902060003373ffffffffffffffffffffffffffffffffffffffff1673ffffffffffffffffffffffffffffffffffffffff16815260200190815260200160002060000160009054906101000a900462ffffff1662ffffff166003856040518082805190602001908083835b602083101515612582578051825260208201915060208101905060208303925061255d565b6001836020036101000a038019825116818451168082178552505050505050905001915050908152602001604051809103902060000160018282829054906101000a900463ffffffff160192506101000a81548163ffffffff021916908363ffffffff1602179055506003846040518082805190602001908083835b60208310151561262357805182526020820191506020810190506020830392506125fe565b6001836020036101000a038019825116818451168082178552505050505050905001915050908152602001604051809103902060000160019054906101000a900463ffffffff166003856040518082805190602001908083835b6020831015156126a2578051825260208201915060208101905060208303925061267d565b6001836020036101000a038019825116818451168082178552505050505050905001915050908152602001604051809103902060000160056101000a81548163ffffffff021916908363ffffffff1602179055507f917f93f9974d3edd7ed1229e2806644763e302855ef00ad8b88339afca6b67d6848460405180806020018373ffffffffffffffffffffffffffffffffffffffff1673ffffffffffffffffffffffffffffffffffffffff168152602001828103825284818151815260200191508051906020019080838360005b8381101561278b578082015181840152602081019050612770565b50505050905090810190601f1680156127b85780820380516001836020036101000a031916815260200191505b50935050505060405180910390a1600191505092915050565b600082426004826040518082805190602001908083835b60208310151561280d57805182526020820191506020810190506020830392506127e8565b6001836020036101000a03801982511681845116808217855250505050505090500191505090815260200160405180910390206004015411151561285057600080fd5b61285984613eba565b5061286333613f61565b5061286e84846143f5565b50826007856040518082805190602001908083835b6020831015156128a85780518252602082019150602081019050602083039250612883565b6001836020036101000a038019825116818451168082178552505050505050905001915050908152602001604051809103902060003373ffffffffffffffffffffffffffffffffffffffff1673ffffffffffffffffffffffffffffffffffffffff16815260200190815260200160002060000160006101000a81548162ffffff021916908362ffffff16021790555060006007856040518082805190602001908083835b602083101515612971578051825260208201915060208101905060208303925061294c565b6001836020036101000a038019825116818451168082178552505050505050905001915050908152602001604051809103902060003373ffffffffffffffffffffffffffffffffffffffff1673ffffffffffffffffffffffffffffffffffffffff16815260200190815260200160002060000160036101000a81548160ff0219169083151502179055507f0f8bb42a4fe3f6f417999dab4df839b1b682e7001919561c2f0a7e9c9834106784338560405180806020018473ffffffffffffffffffffffffffffffffffffffff1673ffffffffffffffffffffffffffffffffffffffff1681526020018362ffffff168152602001828103825285818151815260200191508051906020019080838360005b83811015612a9c578082015181840152602081019050612a81565b50505050905090810190601f168015612ac95780820380516001836020036101000a031916815260200191505b5094505050505060405180910390a1600191505092915050565b6000813373ffffffffffffffffffffffffffffffffffffffff166004826040518082805190602001908083835b602083101515612b355780518252602082019150602081019050602083039250612b10565b6001836020036101000a038019825116818451168082178552505050505050905001915050908152602001604051809103902060020160009054906101000a900473ffffffffffffffffffffffffffffffffffffffff1673ffffffffffffffffffffffffffffffffffffffff16141515612bae57600080fd5b612bb783613eba565b80612bc75750612bc683614529565b5b15612d0857612bd5836145d1565b5060026001846040518082805190602001908083835b602083101515612c105780518252602082019150602081019050602083039250612beb565b6001836020036101000a038019825116818451168082178552505050505050905001915050908152602001604051809103902060006101000a81548160ff02191690836002811115612c5e57fe5b02179055507f69980b418aec6d662aa9f747b1d6d3c42f54f3aa61c2c0574405139fbf8a2967836040518080602001828103825283818151815260200191508051906020019080838360005b83811015612cc5578082015181840152602081019050612caa565b50505050905090810190601f168015612cf25780820380516001836020036101000a031916815260200191505b509250505060405180910390a160019150612d09565b5b50919050565b6060600a826040518082805190602001908083835b602083101515612d495780518252602082019150602081019050602083039250612d24565b6001836020036101000a0380198251168184511680821785525050505050509050019150509081526020016040518091039020805480602002602001604051908101604052809291908181526020018280548015612dfc57602002820191906000526020600020905b8160009054906101000a900473ffffffffffffffffffffffffffffffffffffffff1673ffffffffffffffffffffffffffffffffffffffff1681526020019060010190808311612db2575b50505050509050919050565b6000612e12614c7b565b612e1a614cac565b612e2333613f61565b50606060405190810160405280600060ff168152602001600063ffffffff168152602001600063ffffffff168152509150610100604051908101604052808560ff1681526020018761ffff1681526020018662ffffff1681526020018881526020013373ffffffffffffffffffffffffffffffffffffffff16815260200142815260200160b44201815260200161025842018152509050806004886040518082805190602001908083835b602083101515612ef35780518252602082019150602081019050602083039250612ece565b6001836020036101000a038019825116818451168082178552505050505050905001915050908152602001604051809103902060008201518160000160006101000a81548160ff021916908360ff16021790555060208201518160000160016101000a81548161ffff021916908361ffff16021790555060408201518160000160036101000a81548162ffffff021916908362ffffff1602179055506060820151816001019080519060200190612fab929190614bc6565b5060808201518160020160006101000a81548173ffffffffffffffffffffffffffffffffffffffff021916908373ffffffffffffffffffffffffffffffffffffffff16021790555060a0820151816003015560c0820151816004015560e08201518160050155905050816003886040518082805190602001908083835b60208310151561304d5780518252602082019150602081019050602083039250613028565b6001836020036101000a038019825116818451168082178552505050505050905001915050908152602001604051809103902060008201518160000160006101000a81548160ff021916908360ff16021790555060208201518160000160016101000a81548163ffffffff021916908363ffffffff16021790555060408201518160000160056101000a81548163ffffffff021916908363ffffffff1602179055509050506000808154809291906001019190505550866002600080548152602001908152602001600020908051906020019061312b929190614d14565b5060006001886040518082805190602001908083835b6020831015156131665780518252602082019150602081019050602083039250613141565b6001836020036101000a038019825116818451168082178552505050505050905001915050908152602001604051809103902060006101000a81548160ff021916908360028111156131b457fe5b02179055507f6cf922a0b22af14d2e72845eba6fcdb217e957076d481b94899b8a8c10c78524873360405180806020018373ffffffffffffffffffffffffffffffffffffffff1673ffffffffffffffffffffffffffffffffffffffff168152602001828103825284818151815260200191508051906020019080838360005b8381101561324e578082015181840152602081019050613233565b50505050905090810190601f16801561327b5780820380516001836020036101000a031916815260200191505b50935050505060405180910390a1600192505050949350505050565b6000813373ffffffffffffffffffffffffffffffffffffffff166004826040518082805190602001908083835b6020831015156132e957805182526020820191506020810190506020830392506132c4565b6001836020036101000a038019825116818451168082178552505050505050905001915050908152602001604051809103902060020160009054906101000a900473ffffffffffffffffffffffffffffffffffffffff1673ffffffffffffffffffffffffffffffffffffffff1614151561336257600080fd5b61336b83614529565b50426004846040518082805190602001908083835b6020831015156133a55780518252602082019150602081019050602083039250613380565b6001836020036101000a03801982511681845116808217855250505050505090500191505090815260200160405180910390206003018190555060b442016004846040518082805190602001908083835b60208310151561341b57805182526020820191506020810190506020830392506133f6565b6001836020036101000a03801982511681845116808217855250505050505090500191505090815260200160405180910390206004018190555061025842016004846040518082805190602001908083835b602083101515613492578051825260208201915060208101905060208303925061346d565b6001836020036101000a03801982511681845116808217855250505050505090500191505090815260200160405180910390206005018190555060006001846040518082805190602001908083835b60208310151561350657805182526020820191506020810190506020830392506134e1565b6001836020036101000a038019825116818451168082178552505050505050905001915050908152602001604051809103902060006101000a81548160ff0219169083600281111561355457fe5b02179055507f6e20220f2fa31a64305e5bd85ae2583bbe0b5160d6777817faee826e96d09913833360405180806020018373ffffffffffffffffffffffffffffffffffffffff1673ffffffffffffffffffffffffffffffffffffffff168152602001828103825284818151815260200191508051906020019080838360005b838110156135ee5780820151818401526020810190506135d3565b50505050905090810190601f16801561361b5780820380516001836020036101000a031916815260200191505b50935050505060405180910390a16001915050919050565b60606000806000806000806004886040518082805190602001908083835b6020831015156136765780518252602082019150602081019050602083039250613651565b6001836020036101000a03801982511681845116808217855250505050505090500191505090815260200160405180910390206001016004896040518082805190602001908083835b6020831015156136e457805182526020820191506020810190506020830392506136bf565b6001836020036101000a038019825116818451168082178552505050505050905001915050908152602001604051809103902060000160019054906101000a900461ffff1660048a6040518082805190602001908083835b602083101515613761578051825260208201915060208101905060208303925061373c565b6001836020036101000a038019825116818451168082178552505050505050905001915050908152602001604051809103902060000160039054906101000a900462ffffff1660048b6040518082805190602001908083835b6020831015156137df57805182526020820191506020810190506020830392506137ba565b6001836020036101000a038019825116818451168082178552505050505050905001915050908152602001604051809103902060000160009054906101000a900460ff1660048c6040518082805190602001908083835b60208310151561385b5780518252602082019150602081019050602083039250613836565b6001836020036101000a038019825116818451168082178552505050505050905001915050908152602001604051809103902060020160009054906101000a900473ffffffffffffffffffffffffffffffffffffffff1660038d6040518082805190602001908083835b6020831015156138ea57805182526020820191506020810190506020830392506138c5565b6001836020036101000a038019825116818451168082178552505050505050905001915050908152602001604051809103902060000160019054906101000a900463ffffffff1660038e6040518082805190602001908083835b6020831015156139695780518252602082019150602081019050602083039250613944565b6001836020036101000a038019825116818451168082178552505050505050905001915050908152602001604051809103902060000160009054906101000a900460ff16868054600181600116156101000203166002900480601f016020809104026020016040519081016040528092919081815260200182805460018160011615610100020316600290048015613a425780601f10613a1757610100808354040283529160200191613a42565b820191906000526020600020905b815481529060010190602001808311613a2557829003601f168201915b505050505096509650965096509650965096509650919395979092949650565b6000600c826040518082805190602001908083835b602083101515613a9c5780518252602082019150602081019050602083039250613a77565b6001836020036101000a038019825116818451168082178552505050505050905001915050908152602001604051809103902060003373ffffffffffffffffffffffffffffffffffffffff1673ffffffffffffffffffffffffffffffffffffffff168152602001908152602001600020549050919050565b6000613b1e614ad8565b5081600d60003373ffffffffffffffffffffffffffffffffffffffff1673ffffffffffffffffffffffffffffffffffffffff1681526020019081526020016000209080519060200190613b72929190614d14565b506001600560003373ffffffffffffffffffffffffffffffffffffffff1673ffffffffffffffffffffffffffffffffffffffff16815260200190815260200160002060020160006101000a81548160ff0219169083151502179055507f9858eb2b8f0c35f3801d8ccff2224fcaf69dee2569298ec60f5c05a72a61dca933600560003373ffffffffffffffffffffffffffffffffffffffff1673ffffffffffffffffffffffffffffffffffffffff168152602001908152602001600020600101604051808373ffffffffffffffffffffffffffffffffffffffff1673ffffffffffffffffffffffffffffffffffffffff16815260200180602001828103825283818154600181600116156101000203166002900481526020019150805460018160011615610100020316600290048015613ced5780601f10613cc257610100808354040283529160200191613ced565b820191906000526020600020905b815481529060010190602001808311613cd057829003601f168201915b5050935050505060405180910390a160019050919050565b6000613d1083613eba565b5060006009846040518082805190602001908083835b602083101515613d4b5780518252602082019150602081019050602083039250613d26565b6001836020036101000a038019825116818451168082178552505050505050905001915050908152602001604051809103902060003373ffffffffffffffffffffffffffffffffffffffff1673ffffffffffffffffffffffffffffffffffffffff16815260200190815260200160002060000160039054906101000a900462ffffff1662ffffff16111515613ddf57600080fd5b6000826009856040518082805190602001908083835b602083101515613e1a5780518252602082019150602081019050602083039250613df5565b6001836020036101000a038019825116818451168082178552505050505050905001915050908152602001604051809103902060003373ffffffffffffffffffffffffffffffffffffffff1673ffffffffffffffffffffffffffffffffffffffff16815260200190815260200160002060000160039054906101000a900462ffffff160362ffffff1610151515613eb057600080fd5b6001905092915050565b6000806002811115613ec857fe5b6001836040518082805190602001908083835b602083101515613f005780518252602082019150602081019050602083039250613edb565b6001836020036101000a038019825116818451168082178552505050505050905001915050908152602001604051809103902060009054906101000a900460ff166002811115613f4c57fe5b141515613f5857600080fd5b60019050919050565b6000600560008373ffffffffffffffffffffffffffffffffffffffff1673ffffffffffffffffffffffffffffffffffffffff16815260200190815260200160002060020160009054906101000a900460ff161515613fbe57600080fd5b60019050919050565b600080826003856040518082805190602001908083835b6020831015156140035780518252602082019150602081019050602083039250613fde565b6001836020036101000a038019825116818451168082178552505050505050905001915050908152602001604051809103902060000160059054906101000a900463ffffffff1663ffffffff16031015151561405e57600080fd5b6001905092915050565b6000806009846040518082805190602001908083835b6020831015156140a3578051825260208201915060208101905060208303925061407e565b6001836020036101000a038019825116818451168082178552505050505050905001915050908152602001604051809103902060008473ffffffffffffffffffffffffffffffffffffffff1673ffffffffffffffffffffffffffffffffffffffff16815260200190815260200160002060000160009054906101000a900462ffffff1662ffffff1611151561413757600080fd5b600015156009846040518082805190602001908083835b602083101515614173578051825260208201915060208101905060208303925061414e565b6001836020036101000a038019825116818451168082178552505050505050905001915050908152602001604051809103902060008473ffffffffffffffffffffffffffffffffffffffff1673ffffffffffffffffffffffffffffffffffffffff16815260200190815260200160002060020160009054906101000a900460ff16151514151561420257600080fd5b61420b83613eba565b5061421533613f61565b506001905092915050565b6000600a8262ffffff1681151561423357fe5b0482019050919050565b6000806007846040518082805190602001908083835b6020831015156142785780518252602082019150602081019050602083039250614253565b6001836020036101000a038019825116818451168082178552505050505050905001915050908152602001604051809103902060008473ffffffffffffffffffffffffffffffffffffffff1673ffffffffffffffffffffffffffffffffffffffff16815260200190815260200160002060000160009054906101000a900462ffffff1662ffffff1611151561430c57600080fd5b600015156007846040518082805190602001908083835b6020831015156143485780518252602082019150602081019050602083039250614323565b6001836020036101000a038019825116818451168082178552505050505050905001915050908152602001604051809103902060008473ffffffffffffffffffffffffffffffffffffffff1673ffffffffffffffffffffffffffffffffffffffff16815260200190815260200160002060000160039054906101000a900460ff1615151415156143d757600080fd5b6143e083613eba565b506143ea82613f61565b506001905092915050565b60008162ffffff166004846040518082805190602001908083835b6020831015156144355780518252602082019150602081019050602083039250614410565b6001836020036101000a038019825116818451168082178552505050505050905001915050908152602001604051809103902060000160019054906101000a900461ffff1661ffff1610151561448a57600080fd5b8162ffffff166004846040518082805190602001908083835b6020831015156144c857805182526020820191506020810190506020830392506144a3565b6001836020036101000a038019825116818451168082178552505050505050905001915050908152602001604051809103902060000160039054906101000a900462ffffff1662ffffff1611151561451f57600080fd5b6001905092915050565b60006001600281111561453857fe5b6001836040518082805190602001908083835b602083101515614570578051825260208201915060208101905060208303925061454b565b6001836020036101000a038019825116818451168082178552505050505050905001915050908152602001604051809103902060009054906101000a900460ff1660028111156145bc57fe5b1415156145c857600080fd5b60019050919050565b600080600090505b6006836040518082805190602001908083835b60208310151561461157805182526020820191506020810190506020830392506145ec565b6001836020036101000a038019825116818451168082178552505050505050905001915050908152602001604051809103902080549050811015614a27576003836040518082805190602001908083835b6020831015156146875780518252602082019150602081019050602083039250614662565b6001836020036101000a038019825116818451168082178552505050505050905001915050908152602001604051809103902060000160019054906101000a900463ffffffff1663ffffffff166007846040518082805190602001908083835b60208310151561470c57805182526020820191506020810190506020830392506146e7565b6001836020036101000a038019825116818451168082178552505050505050905001915050908152602001604051809103902060006006866040518082805190602001908083835b6020831015156147795780518252602082019150602081019050602083039250614754565b6001836020036101000a0380198251168184511680821785525050505050509050019150509081526020016040518091039020848154811015156147b957fe5b9060005260206000200160009054906101000a900473ffffffffffffffffffffffffffffffffffffffff1673ffffffffffffffffffffffffffffffffffffffff1673ffffffffffffffffffffffffffffffffffffffff16815260200190815260200160002060000160009054906101000a900462ffffff1662ffffff166003856040518082805190602001908083835b60208310151561486e5780518252602082019150602081019050602083039250614849565b6001836020036101000a038019825116818451168082178552505050505050905001915050908152602001604051809103902060000160059054906101000a900463ffffffff160263ffffffff168115156148c557fe5b0463ffffffff16600c846040518082805190602001908083835b60208310151561490457805182526020820191506020810190506020830392506148df565b6001836020036101000a038019825116818451168082178552505050505050905001915050908152602001604051809103902060006006866040518082805190602001908083835b602083101515614971578051825260208201915060208101905060208303925061494c565b6001836020036101000a0380198251168184511680821785525050505050509050019150509081526020016040518091039020848154811015156149b157fe5b9060005260206000200160009054906101000a900473ffffffffffffffffffffffffffffffffffffffff1673ffffffffffffffffffffffffffffffffffffffff1673ffffffffffffffffffffffffffffffffffffffff1681526020019081526020016000208190555080806001019150506145d9565b6001915050919050565b602083101515614a565780518252602082019150602081019050602083039250614a31565b6001836020036101000a038019825116818451168082178552505050505050905001915050908152602001604051809103902060020160009054906101000a900473ffffffffffffffffffffffffffffffffffffffff1673ffffffffffffffffffffffffffffffffffffffff16141515614acf57600080fd5b60019050919050565b60006706f05b59d3b2000034141580614b7f5750600073ffffffffffffffffffffffffffffffffffffffff16600560003373ffffffffffffffffffffffffffffffffffffffff1673ffffffffffffffffffffffffffffffffffffffff16815260200190815260200160002060000160009054906101000a900473ffffffffffffffffffffffffffffffffffffffff1673ffffffffffffffffffffffffffffffffffffffff16145b15614b8957600080fd5b90565b606060405190810160405280600073ffffffffffffffffffffffffffffffffffffffff168152602001606081526020016000151581525090565b828054600181600116156101000203166002900490600052602060002090601f016020900481019282601f10614c0757805160ff1916838001178555614c35565b82800160010185558215614c35579182015b82811115614c34578251825591602001919060010190614c19565b5b509050614c429190614d94565b5090565b608060405190810160405280600062ffffff168152602001600062ffffff168152602001606081526020016000151581525090565b606060405190810160405280600060ff168152602001600063ffffffff168152602001600063ffffffff1681525090565b61010060405190810160405280600060ff168152602001600061ffff168152602001600062ffffff16815260200160608152602001600073ffffffffffffffffffffffffffffffffffffffff1681526020016000815260200160008152602001600081525090565b828054600181600116156101000203166002900490600052602060002090601f016020900481019282601f10614d5557805160ff1916838001178555614d83565b82800160010185558215614d83579182015b82811115614d82578251825591602001919060010190614d67565b5b509050614d909190614d94565b5090565b614db691905b80821115614db2576000816000905550600101614d9a565b5090565b905600a165627a7a72305820a3ef2ff16e17b9cf6baef1d8b321c9788e03cbb98d22422c2ce8c2a71525acfc0029",
  "source": "pragma solidity ^0.4.21;\nimport \"./MicrolendingEndVC.sol\";\n\n\ncontract MicrolendingPlatform is MicrolendingEndVC {\n  mapping(address => string) membersKYC;\n\n  event MemberRegisteredOnPlatform(address _membersAddress, string _name);\n  event MemberVerified(address _membersAddress, string _name);\n\n  function memberRegistrationPlatform(string _name) public returns(bool) {\n    MicrolendingPlatformDetails.membersDetails memory _membersdetails = MicrolendingPlatformDetails.membersDetails(\n      msg.sender,\n      _name,\n      false);\n    members_Details[msg.sender] = _membersdetails;\n    emit MemberRegisteredOnPlatform(msg.sender, _name);\n    return true;\n  }\n\n  function membersVerification(string _kyc) public payable returns(bool) {\n    _checkmembersVerification();\n    membersKYC[msg.sender] = _kyc;\n    members_Details[msg.sender].verifiedmember = true;\n    emit MemberVerified(msg.sender, members_Details[msg.sender].name);\n    return true;\n  }\n\n  function _checkmembersVerification() private view returns(bool) {\n    if (msg.value != 0.5 ether || members_Details[msg.sender].memberAddress == address(0) ) {\n      revert();\n    }\n  }\n\n  function _checkmemberDetails(address _membersAddress) internal view returns(bool) {\n    require (members_Details[_membersAddress].verifiedmember);\n    return true;\n  }\n}\n",
  "sourcePath": "/home/pradhumn/projects/Blockchain/contracts/MicrolendingPlatform.sol",
  "compiler": {
    "name": "solc",
    "version": "0.4.24+commit.e67f0147.Emscripten.clang"
  },
  "schemaVersion": "2.0.1",
  "updatedAt": "2018-11-13T18:16:18.468Z"
}